{
  "_format": "hh-sol-artifact-1",
  "contractName": "WAGMI",
  "sourceName": "contracts/WAGMI.sol",
  "abi": [
    {
      "inputs": [
        {
          "internalType": "contract IWorldID",
          "name": "_worldId",
          "type": "address"
        },
        {
          "internalType": "uint256",
          "name": "_groupId",
          "type": "uint256"
        },
        {
          "internalType": "string",
          "name": "_actionId",
          "type": "string"
        }
      ],
      "stateMutability": "nonpayable",
      "type": "constructor"
    },
    {
      "inputs": [],
      "name": "IncorrectSignee",
      "type": "error"
    },
    {
      "inputs": [],
      "name": "IncorrectSigner",
      "type": "error"
    },
    {
      "anonymous": false,
      "inputs": [
        {
          "indexed": false,
          "internalType": "string",
          "name": "agreement",
          "type": "string"
        },
        {
          "indexed": false,
          "internalType": "address",
          "name": "signer",
          "type": "address"
        },
        {
          "indexed": false,
          "internalType": "uint256",
          "name": "id",
          "type": "uint256"
        }
      ],
      "name": "AgreementAdded",
      "type": "event"
    },
    {
      "anonymous": false,
      "inputs": [
        {
          "indexed": false,
          "internalType": "string",
          "name": "message",
          "type": "string"
        },
        {
          "indexed": false,
          "internalType": "address",
          "name": "signer",
          "type": "address"
        },
        {
          "indexed": false,
          "internalType": "uint256",
          "name": "id",
          "type": "uint256"
        }
      ],
      "name": "Signed",
      "type": "event"
    },
    {
      "inputs": [
        {
          "components": [
            {
              "internalType": "uint256",
              "name": "id",
              "type": "uint256"
            },
            {
              "internalType": "address",
              "name": "signer",
              "type": "address"
            },
            {
              "internalType": "string",
              "name": "agreement",
              "type": "string"
            },
            {
              "internalType": "bytes",
              "name": "signature",
              "type": "bytes"
            },
            {
              "internalType": "bool",
              "name": "isSigned",
              "type": "bool"
            }
          ],
          "internalType": "struct WAGMI.UnSignedAgreement",
          "name": "_agreement",
          "type": "tuple"
        }
      ],
      "name": "addAgreement",
      "outputs": [],
      "stateMutability": "nonpayable",
      "type": "function"
    },
    {
      "inputs": [
        {
          "internalType": "uint256",
          "name": "",
          "type": "uint256"
        }
      ],
      "name": "indexToAgreementStorage",
      "outputs": [
        {
          "internalType": "uint256",
          "name": "id",
          "type": "uint256"
        },
        {
          "internalType": "address",
          "name": "signer",
          "type": "address"
        },
        {
          "internalType": "string",
          "name": "agreement",
          "type": "string"
        },
        {
          "internalType": "bytes",
          "name": "signature",
          "type": "bytes"
        },
        {
          "internalType": "bool",
          "name": "isSigned",
          "type": "bool"
        }
      ],
      "stateMutability": "view",
      "type": "function"
    },
    {
      "inputs": [
        {
          "internalType": "string",
          "name": "message",
          "type": "string"
        },
        {
          "internalType": "bytes",
          "name": "signature",
          "type": "bytes"
        },
        {
          "internalType": "uint256",
          "name": "id",
          "type": "uint256"
        },
        {
          "internalType": "address",
          "name": "receiver",
          "type": "address"
        },
        {
          "internalType": "uint256",
          "name": "root",
          "type": "uint256"
        },
        {
          "internalType": "uint256",
          "name": "nullifierHash",
          "type": "uint256"
        },
        {
          "internalType": "uint256[8]",
          "name": "proof",
          "type": "uint256[8]"
        }
      ],
      "name": "signAgreement",
      "outputs": [],
      "stateMutability": "nonpayable",
      "type": "function"
    },
    {
      "inputs": [
        {
          "internalType": "address",
          "name": "",
          "type": "address"
        },
        {
          "internalType": "uint256",
          "name": "",
          "type": "uint256"
        }
      ],
      "name": "signerToAgreementMapping",
      "outputs": [
        {
          "internalType": "uint256",
          "name": "id",
          "type": "uint256"
        },
        {
          "internalType": "address",
          "name": "signer",
          "type": "address"
        },
        {
          "internalType": "string",
          "name": "agreement",
          "type": "string"
        },
        {
          "internalType": "bytes",
          "name": "signature",
          "type": "bytes"
        }
      ],
      "stateMutability": "view",
      "type": "function"
    },
    {
      "inputs": [
        {
          "internalType": "address",
          "name": "signer",
          "type": "address"
        },
        {
          "internalType": "uint256",
          "name": "_index",
          "type": "uint256"
        },
        {
          "internalType": "string",
          "name": "agreement",
          "type": "string"
        }
      ],
      "name": "verifyAgreement",
      "outputs": [
        {
          "internalType": "bool",
          "name": "",
          "type": "bool"
        }
      ],
      "stateMutability": "view",
      "type": "function"
    }
  ],
  "bytecode": "0x60c06040523480156200001157600080fd5b5060405162002bf538038062002bf5833981810160405281019062000037919062000351565b82600260006101000a81548173ffffffffffffffffffffffffffffffffffffffff021916908373ffffffffffffffffffffffffffffffffffffffff1602179055508160808181525050620000b78160405160200162000097919062000419565b604051602081830303815290604052620000c760201b62000b931760201c565b60a0818152505050505062000498565b6000600882604051602001620000de91906200047f565b6040516020818303038152906040528051906020012060001c901c9050919050565b6000604051905090565b600080fd5b600080fd5b600073ffffffffffffffffffffffffffffffffffffffff82169050919050565b6000620001418262000114565b9050919050565b6000620001558262000134565b9050919050565b620001678162000148565b81146200017357600080fd5b50565b60008151905062000187816200015c565b92915050565b6000819050919050565b620001a2816200018d565b8114620001ae57600080fd5b50565b600081519050620001c28162000197565b92915050565b600080fd5b600080fd5b6000601f19601f8301169050919050565b7f4e487b7100000000000000000000000000000000000000000000000000000000600052604160045260246000fd5b6200021d82620001d2565b810181811067ffffffffffffffff821117156200023f576200023e620001e3565b5b80604052505050565b60006200025462000100565b905062000262828262000212565b919050565b600067ffffffffffffffff821115620002855762000284620001e3565b5b6200029082620001d2565b9050602081019050919050565b60005b83811015620002bd578082015181840152602081019050620002a0565b83811115620002cd576000848401525b50505050565b6000620002ea620002e48462000267565b62000248565b905082815260208101848484011115620003095762000308620001cd565b5b620003168482856200029d565b509392505050565b600082601f830112620003365762000335620001c8565b5b815162000348848260208601620002d3565b91505092915050565b6000806000606084860312156200036d576200036c6200010a565b5b60006200037d8682870162000176565b93505060206200039086828701620001b1565b925050604084015167ffffffffffffffff811115620003b457620003b36200010f565b5b620003c2868287016200031e565b9150509250925092565b600081519050919050565b600081905092915050565b6000620003ef82620003cc565b620003fb8185620003d7565b93506200040d8185602086016200029d565b80840191505092915050565b6000620004278284620003e2565b915081905092915050565b600081519050919050565b600081905092915050565b6000620004558262000432565b6200046181856200043d565b9350620004738185602086016200029d565b80840191505092915050565b60006200048d828462000448565b915081905092915050565b60805160a051612737620004be6000396000610448015260006103fe01526127376000f3fe608060405234801561001057600080fd5b50600436106100575760003560e01c80637a5e7f111461005c5780639b275fb414610090578063a55b8b88146100ac578063a5e9477d146100c8578063ffc15184146100f8575b600080fd5b610076600480360381019061007191906112b8565b61012b565b60405161008795949392919061143e565b60405180910390f35b6100aa60048036038101906100a591906114c3565b61029e565b005b6100c660048036038101906100c19190611615565b6103bd565b005b6100e260048036038101906100dd91906116f8565b6107ab565b6040516100ef919061176c565b60405180910390f35b610112600480360381019061010d9190611787565b610a16565b60405161012294939291906117c7565b60405180910390f35b60016020528060005260406000206000915090508060000154908060010160009054906101000a900473ffffffffffffffffffffffffffffffffffffffff169080600201805461017a90611849565b80601f01602080910402602001604051908101604052809291908181526020018280546101a690611849565b80156101f35780601f106101c8576101008083540402835291602001916101f3565b820191906000526020600020905b8154815290600101906020018083116101d657829003601f168201915b50505050509080600301805461020890611849565b80601f016020809104026020016040519081016040528092919081815260200182805461023490611849565b80156102815780601f1061025657610100808354040283529160200191610281565b820191906000526020600020905b81548152906001019060200180831161026457829003601f168201915b5050505050908060040160009054906101000a900460ff16905085565b60006102c88280604001906102b3919061188a565b8480606001906102c391906118ed565b610bca565b90503373ffffffffffffffffffffffffffffffffffffffff168173ffffffffffffffffffffffffffffffffffffffff161461032f576040517f870712bf00000000000000000000000000000000000000000000000000000000815260040160405180910390fd5b8160016000600354815260200190815260200160002081816103519190611fdb565b9050507f48227efa5487b5cdae5903ed94bb020e7430c586abffedc3d7851a1032d4432c828060400190610385919061188a565b836003546040516103999493929190612025565b60405180910390a1600360008154809291906103b490612094565b91905055505050565b600260009054906101000a900473ffffffffffffffffffffffffffffffffffffffff1673ffffffffffffffffffffffffffffffffffffffff16633bc778e3847f0000000000000000000000000000000000000000000000000000000000000000610445886040516020016104319190612125565b604051602081830303815290604052610b93565b867f0000000000000000000000000000000000000000000000000000000000000000876040518763ffffffff1660e01b815260040161048996959493929190612151565b60006040518083038186803b1580156104a157600080fd5b505afa1580156104b5573d6000803e3d6000fd5b5050505060006104c78a8a8a8a610bca565b90503373ffffffffffffffffffffffffffffffffffffffff168173ffffffffffffffffffffffffffffffffffffffff16141561076d5760008060003373ffffffffffffffffffffffffffffffffffffffff1673ffffffffffffffffffffffffffffffffffffffff168152602001908152602001600020805490509050600060405180608001604052808381526020013373ffffffffffffffffffffffffffffffffffffffff1681526020018d8d8080601f016020809104026020016040519081016040528093929190818152602001838380828437600081840152601f19601f8201169050808301925050505050505081526020018b8b8080601f016020809104026020016040519081016040528093929190818152602001838380828437600081840152601f19601f8201169050808301925050505050505081525090506000803373ffffffffffffffffffffffffffffffffffffffff1673ffffffffffffffffffffffffffffffffffffffff1681526020019081526020016000208190806001815401808255809150506001900390600052602060002090600402016000909190919091506000820151816000015560208201518160010160006101000a81548173ffffffffffffffffffffffffffffffffffffffff021916908373ffffffffffffffffffffffffffffffffffffffff16021790555060408201518160020190805190602001906106db92919061114f565b5060608201518160030190805190602001906106f89291906111d5565b50505060018060008a815260200190815260200160002060040160006101000a81548160ff0219169083151502179055507f0cb8e4714fceb3472eab9150328e5cab3176a0fedd4aadf54347e2dcd1e0887e8c8c338b60405161075e9493929190612025565b60405180910390a1505061079f565b6040517ff4f119c100000000000000000000000000000000000000000000000000000000815260040160405180910390fd5b50505050505050505050565b6000806000808773ffffffffffffffffffffffffffffffffffffffff1673ffffffffffffffffffffffffffffffffffffffff16815260200190815260200160002085815481106107fe576107fd6121b3565b5b9060005260206000209060040201604051806080016040529081600082015481526020016001820160009054906101000a900473ffffffffffffffffffffffffffffffffffffffff1673ffffffffffffffffffffffffffffffffffffffff1673ffffffffffffffffffffffffffffffffffffffff16815260200160028201805461088790611849565b80601f01602080910402602001604051908101604052809291908181526020018280546108b390611849565b80156109005780601f106108d557610100808354040283529160200191610900565b820191906000526020600020905b8154815290600101906020018083116108e357829003601f168201915b5050505050815260200160038201805461091990611849565b80601f016020809104026020016040519081016040528092919081815260200182805461094590611849565b80156109925780601f1061096757610100808354040283529160200191610992565b820191906000526020600020905b81548152906001019060200180831161097557829003601f168201915b505050505081525050905060008160400151905084846040516020016109b9929190612212565b60405160208183030381529060405280519060200120816040516020016109e0919061225c565b604051602081830303815290604052805190602001201415610a0757600192505050610a0e565b6000925050505b949350505050565b60006020528160005260406000208181548110610a3257600080fd5b9060005260206000209060040201600091509150508060000154908060010160009054906101000a900473ffffffffffffffffffffffffffffffffffffffff1690806002018054610a8290611849565b80601f0160208091040260200160405190810160405280929190818152602001828054610aae90611849565b8015610afb5780601f10610ad057610100808354040283529160200191610afb565b820191906000526020600020905b815481529060010190602001808311610ade57829003601f168201915b505050505090806003018054610b1090611849565b80601f0160208091040260200160405190810160405280929190818152602001828054610b3c90611849565b8015610b895780601f10610b5e57610100808354040283529160200191610b89565b820191906000526020600020905b815481529060010190602001808311610b6c57829003601f168201915b5050505050905084565b6000600882604051602001610ba891906122af565b6040516020818303038152906040528051906020012060001c901c9050919050565b600080610bf78686604051602001610be3929190612212565b604051602081830303815290604052610c58565b90506000610c498286868080601f016020809104026020016040519081016040528093929190818152602001838380828437600081840152601f19601f82011690508083019250505050505050610c93565b90508092505050949350505050565b6000610c648251610cba565b82604051602001610c76929190612312565b604051602081830303815290604052805190602001209050919050565b6000806000610ca28585610e1b565b91509150610caf81610e6d565b819250505092915050565b60606000821415610d02576040518060400160405280600181526020017f30000000000000000000000000000000000000000000000000000000000000008152509050610e16565b600082905060005b60008214610d34578080610d1d90612094565b915050600a82610d2d9190612370565b9150610d0a565b60008167ffffffffffffffff811115610d5057610d4f611ad8565b5b6040519080825280601f01601f191660200182016040528015610d825781602001600182028036833780820191505090505b5090505b60008514610e0f57600182610d9b91906123a1565b9150600a85610daa91906123d5565b6030610db69190612406565b60f81b818381518110610dcc57610dcb6121b3565b5b60200101907effffffffffffffffffffffffffffffffffffffffffffffffffffffffffffff1916908160001a905350600a85610e089190612370565b9450610d86565b8093505050505b919050565b600080604183511415610e5d5760008060006020860151925060408601519150606086015160001a9050610e5187828585611042565b94509450505050610e66565b60006002915091505b9250929050565b60006004811115610e8157610e8061245c565b5b816004811115610e9457610e9361245c565b5b1415610e9f5761103f565b60016004811115610eb357610eb261245c565b5b816004811115610ec657610ec561245c565b5b1415610f07576040517f08c379a0000000000000000000000000000000000000000000000000000000008152600401610efe906124d7565b60405180910390fd5b60026004811115610f1b57610f1a61245c565b5b816004811115610f2e57610f2d61245c565b5b1415610f6f576040517f08c379a0000000000000000000000000000000000000000000000000000000008152600401610f6690612543565b60405180910390fd5b60036004811115610f8357610f8261245c565b5b816004811115610f9657610f9561245c565b5b1415610fd7576040517f08c379a0000000000000000000000000000000000000000000000000000000008152600401610fce906125d5565b60405180910390fd5b600480811115610fea57610fe961245c565b5b816004811115610ffd57610ffc61245c565b5b141561103e576040517f08c379a000000000000000000000000000000000000000000000000000000000815260040161103590612667565b60405180910390fd5b5b50565b6000807f7fffffffffffffffffffffffffffffff5d576e7357a4501ddfe92f46681b20a08360001c111561107d576000600391509150611146565b601b8560ff16141580156110955750601c8560ff1614155b156110a7576000600491509150611146565b6000600187878787604051600081526020016040526040516110cc94939291906126bc565b6020604051602081039080840390855afa1580156110ee573d6000803e3d6000fd5b505050602060405103519050600073ffffffffffffffffffffffffffffffffffffffff168173ffffffffffffffffffffffffffffffffffffffff16141561113d57600060019250925050611146565b80600092509250505b94509492505050565b82805461115b90611849565b90600052602060002090601f01602090048101928261117d57600085556111c4565b82601f1061119657805160ff19168380011785556111c4565b828001600101855582156111c4579182015b828111156111c35782518255916020019190600101906111a8565b5b5090506111d1919061125b565b5090565b8280546111e190611849565b90600052602060002090601f016020900481019282611203576000855561124a565b82601f1061121c57805160ff191683800117855561124a565b8280016001018555821561124a579182015b8281111561124957825182559160200191906001019061122e565b5b509050611257919061125b565b5090565b5b8082111561127457600081600090555060010161125c565b5090565b600080fd5b600080fd5b6000819050919050565b61129581611282565b81146112a057600080fd5b50565b6000813590506112b28161128c565b92915050565b6000602082840312156112ce576112cd611278565b5b60006112dc848285016112a3565b91505092915050565b6112ee81611282565b82525050565b600073ffffffffffffffffffffffffffffffffffffffff82169050919050565b600061131f826112f4565b9050919050565b61132f81611314565b82525050565b600081519050919050565b600082825260208201905092915050565b60005b8381101561136f578082015181840152602081019050611354565b8381111561137e576000848401525b50505050565b6000601f19601f8301169050919050565b60006113a082611335565b6113aa8185611340565b93506113ba818560208601611351565b6113c381611384565b840191505092915050565b600081519050919050565b600082825260208201905092915050565b60006113f5826113ce565b6113ff81856113d9565b935061140f818560208601611351565b61141881611384565b840191505092915050565b60008115159050919050565b61143881611423565b82525050565b600060a08201905061145360008301886112e5565b6114606020830187611326565b81810360408301526114728186611395565b9050818103606083015261148681856113ea565b9050611495608083018461142f565b9695505050505050565b600080fd5b600060a082840312156114ba576114b961149f565b5b81905092915050565b6000602082840312156114d9576114d8611278565b5b600082013567ffffffffffffffff8111156114f7576114f661127d565b5b611503848285016114a4565b91505092915050565b600080fd5b600080fd5b600080fd5b60008083601f8401126115315761153061150c565b5b8235905067ffffffffffffffff81111561154e5761154d611511565b5b60208301915083600182028301111561156a57611569611516565b5b9250929050565b60008083601f8401126115875761158661150c565b5b8235905067ffffffffffffffff8111156115a4576115a3611511565b5b6020830191508360018202830111156115c0576115bf611516565b5b9250929050565b6115d081611314565b81146115db57600080fd5b50565b6000813590506115ed816115c7565b92915050565b60008190508260206008028201111561160f5761160e611516565b5b92915050565b60008060008060008060008060006101c08a8c03121561163857611637611278565b5b60008a013567ffffffffffffffff8111156116565761165561127d565b5b6116628c828d0161151b565b995099505060208a013567ffffffffffffffff8111156116855761168461127d565b5b6116918c828d01611571565b975097505060406116a48c828d016112a3565b95505060606116b58c828d016115de565b94505060806116c68c828d016112a3565b93505060a06116d78c828d016112a3565b92505060c06116e88c828d016115f3565b9150509295985092959850929598565b6000806000806060858703121561171257611711611278565b5b6000611720878288016115de565b9450506020611731878288016112a3565b935050604085013567ffffffffffffffff8111156117525761175161127d565b5b61175e8782880161151b565b925092505092959194509250565b6000602082019050611781600083018461142f565b92915050565b6000806040838503121561179e5761179d611278565b5b60006117ac858286016115de565b92505060206117bd858286016112a3565b9150509250929050565b60006080820190506117dc60008301876112e5565b6117e96020830186611326565b81810360408301526117fb8185611395565b9050818103606083015261180f81846113ea565b905095945050505050565b7f4e487b7100000000000000000000000000000000000000000000000000000000600052602260045260246000fd5b6000600282049050600182168061186157607f821691505b602082108114156118755761187461181a565b5b50919050565b600080fd5b600080fd5b600080fd5b600080833560016020038436030381126118a7576118a661187b565b5b80840192508235915067ffffffffffffffff8211156118c9576118c8611880565b5b6020830192506001820236038313156118e5576118e4611885565b5b509250929050565b6000808335600160200384360303811261190a5761190961187b565b5b80840192508235915067ffffffffffffffff82111561192c5761192b611880565b5b60208301925060018202360383131561194857611947611885565b5b509250929050565b6000813561195d8161128c565b80915050919050565b60008160001b9050919050565b60007fffffffffffffffffffffffffffffffffffffffffffffffffffffffffffffffff61199f84611966565b9350801983169250808416831791505092915050565b6000819050919050565b60006119da6119d56119d084611282565b6119b5565b611282565b9050919050565b6000819050919050565b6119f4826119bf565b611a07611a00826119e1565b8354611973565b8255505050565b60008135611a1b816115c7565b80915050919050565b600073ffffffffffffffffffffffffffffffffffffffff611a4484611966565b9350801983169250808416831791505092915050565b6000611a75611a70611a6b846112f4565b6119b5565b6112f4565b9050919050565b6000611a8782611a5a565b9050919050565b6000611a9982611a7c565b9050919050565b6000819050919050565b611ab382611a8e565b611ac6611abf82611aa0565b8354611a24565b8255505050565b600082905092915050565b7f4e487b7100000000000000000000000000000000000000000000000000000000600052604160045260246000fd5b60008190508160005260206000209050919050565b60006020601f8301049050919050565b600082821b905092915050565b600060088302611b697fffffffffffffffffffffffffffffffffffffffffffffffffffffffffffffffff82611b2c565b611b738683611b2c565b95508019841693508086168417925050509392505050565b611b94836119bf565b611ba8611ba0826119e1565b848454611b39565b825550505050565b600090565b611bbd611bb0565b611bc8818484611b8b565b505050565b5b81811015611bec57611be1600082611bb5565b600181019050611bce565b5050565b601f821115611c3157611c0281611b07565b611c0b84611b1c565b81016020851015611c1a578190505b611c2e611c2685611b1c565b830182611bcd565b50505b505050565b600082821c905092915050565b6000611c5460001984600802611c36565b1980831691505092915050565b6000611c6d8383611c43565b9150826002028217905092915050565b611c878383611acd565b67ffffffffffffffff811115611ca057611c9f611ad8565b5b611caa8254611849565b611cb5828285611bf0565b6000601f831160018114611ce45760008415611cd2578287013590505b611cdc8582611c61565b865550611d44565b601f198416611cf286611b07565b60005b82811015611d1a57848901358255600182019150602085019450602081019050611cf5565b86831015611d375784890135611d33601f891682611c43565b8355505b6001600288020188555050505b50505050505050565b611d58838383611c7d565b505050565b600082905092915050565b60008190508160005260206000209050919050565b601f821115611dbe57611d8f81611d68565b611d9884611b1c565b81016020851015611da7578190505b611dbb611db385611b1c565b830182611bcd565b50505b505050565b611dcd8383611d5d565b67ffffffffffffffff811115611de657611de5611ad8565b5b611df08254611849565b611dfb828285611d7d565b6000601f831160018114611e2a5760008415611e18578287013590505b611e228582611c61565b865550611e8a565b601f198416611e3886611d68565b60005b82811015611e6057848901358255600182019150602085019450602081019050611e3b565b86831015611e7d5784890135611e79601f891682611c43565b8355505b6001600288020188555050505b50505050505050565b611e9e838383611dc3565b505050565b611eac81611423565b8114611eb757600080fd5b50565b60008135611ec781611ea3565b80915050919050565b600060ff611edd84611966565b9350801983169250808416831791505092915050565b6000611efe82611423565b9050919050565b6000819050919050565b611f1882611ef3565b611f2b611f2482611f05565b8354611ed0565b8255505050565b600081016000830180611f4481611950565b9050611f5081846119eb565b505050600181016020830180611f6581611a0e565b9050611f718184611aaa565b5050506002810160408301611f86818561188a565b611f91818386611d4d565b505050506003810160608301611fa781856118ed565b611fb2818386611e93565b50505050600481016080830180611fc881611eba565b9050611fd48184611f0f565b5050505050565b611fe58282611f32565b5050565b82818337600083830152505050565b60006120048385611340565b9350612011838584611fe9565b61201a83611384565b840190509392505050565b60006060820190508181036000830152612040818688611ff8565b905061204f6020830185611326565b61205c60408301846112e5565b95945050505050565b7f4e487b7100000000000000000000000000000000000000000000000000000000600052601160045260246000fd5b600061209f82611282565b91507fffffffffffffffffffffffffffffffffffffffffffffffffffffffffffffffff8214156120d2576120d1612065565b5b600182019050919050565b60008160601b9050919050565b60006120f5826120dd565b9050919050565b6000612107826120ea565b9050919050565b61211f61211a82611314565b6120fc565b82525050565b6000612131828461210e565b60148201915081905092915050565b61214d6101008383611fe9565b5050565b60006101a08201905061216760008301896112e5565b61217460208301886112e5565b61218160408301876112e5565b61218e60608301866112e5565b61219b60808301856112e5565b6121a860a0830184612140565b979650505050505050565b7f4e487b7100000000000000000000000000000000000000000000000000000000600052603260045260246000fd5b600081905092915050565b60006121f983856121e2565b9350612206838584611fe9565b82840190509392505050565b600061221f8284866121ed565b91508190509392505050565b600061223682611335565b61224081856121e2565b9350612250818560208601611351565b80840191505092915050565b6000612268828461222b565b915081905092915050565b600081905092915050565b6000612289826113ce565b6122938185612273565b93506122a3818560208601611351565b80840191505092915050565b60006122bb828461227e565b915081905092915050565b7f19457468657265756d205369676e6564204d6573736167653a0a000000000000600082015250565b60006122fc601a836121e2565b9150612307826122c6565b601a82019050919050565b600061231d826122ef565b9150612329828561222b565b9150612335828461227e565b91508190509392505050565b7f4e487b7100000000000000000000000000000000000000000000000000000000600052601260045260246000fd5b600061237b82611282565b915061238683611282565b92508261239657612395612341565b5b828204905092915050565b60006123ac82611282565b91506123b783611282565b9250828210156123ca576123c9612065565b5b828203905092915050565b60006123e082611282565b91506123eb83611282565b9250826123fb576123fa612341565b5b828206905092915050565b600061241182611282565b915061241c83611282565b9250827fffffffffffffffffffffffffffffffffffffffffffffffffffffffffffffffff0382111561245157612450612065565b5b828201905092915050565b7f4e487b7100000000000000000000000000000000000000000000000000000000600052602160045260246000fd5b7f45434453413a20696e76616c6964207369676e61747572650000000000000000600082015250565b60006124c1601883611340565b91506124cc8261248b565b602082019050919050565b600060208201905081810360008301526124f0816124b4565b9050919050565b7f45434453413a20696e76616c6964207369676e6174757265206c656e67746800600082015250565b600061252d601f83611340565b9150612538826124f7565b602082019050919050565b6000602082019050818103600083015261255c81612520565b9050919050565b7f45434453413a20696e76616c6964207369676e6174757265202773272076616c60008201527f7565000000000000000000000000000000000000000000000000000000000000602082015250565b60006125bf602283611340565b91506125ca82612563565b604082019050919050565b600060208201905081810360008301526125ee816125b2565b9050919050565b7f45434453413a20696e76616c6964207369676e6174757265202776272076616c60008201527f7565000000000000000000000000000000000000000000000000000000000000602082015250565b6000612651602283611340565b915061265c826125f5565b604082019050919050565b6000602082019050818103600083015261268081612644565b9050919050565b6000819050919050565b61269a81612687565b82525050565b600060ff82169050919050565b6126b6816126a0565b82525050565b60006080820190506126d16000830187612691565b6126de60208301866126ad565b6126eb6040830185612691565b6126f86060830184612691565b9594505050505056fea2646970667358221220aa21a815ff0fdf79825af5a81c8b9059d2e8b13040ce1be5a641ec7435f4800264736f6c634300080a0033",
  "linkReferences": {},
  "deployedLinkReferences": {}
}